{
  "address": "0xA69966fCF54306F0759bCEf1f6459ef405CEE20A",
  "abi": [
    {
      "inputs": [
        {
          "internalType": "uint256[]",
          "name": "_chainlist",
          "type": "uint256[]"
        }
      ],
      "stateMutability": "nonpayable",
      "type": "constructor"
    },
    {
      "anonymous": false,
      "inputs": [
        {
          "indexed": false,
          "internalType": "uint256",
          "name": "_startChainId",
          "type": "uint256"
        },
        {
          "indexed": false,
          "internalType": "uint256",
          "name": "hops",
          "type": "uint256"
        }
      ],
      "name": "Completed",
      "type": "event"
    },
    {
      "anonymous": false,
      "inputs": [],
      "name": "Go",
      "type": "event"
    },
    {
      "anonymous": false,
      "inputs": [
        {
          "indexed": false,
          "internalType": "uint256",
          "name": "startChainId",
          "type": "uint256"
        },
        {
          "indexed": false,
          "internalType": "uint256",
          "name": "hops",
          "type": "uint256"
        }
      ],
      "name": "NextHop",
      "type": "event"
    },
    {
      "anonymous": false,
      "inputs": [
        {
          "indexed": true,
          "internalType": "address",
          "name": "previousOwner",
          "type": "address"
        },
        {
          "indexed": true,
          "internalType": "address",
          "name": "newOwner",
          "type": "address"
        }
      ],
      "name": "OwnershipTransferred",
      "type": "event"
    },
    {
      "inputs": [],
      "name": "BRIDGE",
      "outputs": [
        {
          "internalType": "contract IMessageV3",
          "name": "",
          "type": "address"
        }
      ],
      "stateMutability": "view",
      "type": "function"
    },
    {
      "inputs": [
        {
          "internalType": "uint256",
          "name": "",
          "type": "uint256"
        }
      ],
      "name": "CHAINS",
      "outputs": [
        {
          "internalType": "uint256",
          "name": "fee",
          "type": "uint256"
        },
        {
          "internalType": "uint256",
          "name": "price",
          "type": "uint256"
        },
        {
          "internalType": "address",
          "name": "endpoint",
          "type": "address"
        },
        {
          "internalType": "uint16",
          "name": "confirmations",
          "type": "uint16"
        }
      ],
      "stateMutability": "view",
      "type": "function"
    },
    {
      "inputs": [],
      "name": "FEE_TOKEN",
      "outputs": [
        {
          "internalType": "contract IERC20",
          "name": "",
          "type": "address"
        }
      ],
      "stateMutability": "view",
      "type": "function"
    },
    {
      "inputs": [
        {
          "internalType": "uint256",
          "name": "",
          "type": "uint256"
        }
      ],
      "name": "chainlist",
      "outputs": [
        {
          "internalType": "uint256",
          "name": "",
          "type": "uint256"
        }
      ],
      "stateMutability": "view",
      "type": "function"
    },
    {
      "inputs": [
        {
          "internalType": "address",
          "name": "_bridge",
          "type": "address"
        },
        {
          "internalType": "uint256[]",
          "name": "_chains",
          "type": "uint256[]"
        },
        {
          "internalType": "uint256[]",
          "name": "_prices",
          "type": "uint256[]"
        },
        {
          "internalType": "address[]",
          "name": "_endpoints",
          "type": "address[]"
        },
        {
          "internalType": "uint16[]",
          "name": "_confirmations",
          "type": "uint16[]"
        }
      ],
      "name": "configureBridge",
      "outputs": [],
      "stateMutability": "nonpayable",
      "type": "function"
    },
    {
      "inputs": [],
      "name": "go",
      "outputs": [],
      "stateMutability": "nonpayable",
      "type": "function"
    },
    {
      "inputs": [
        {
          "internalType": "uint256",
          "name": "",
          "type": "uint256"
        },
        {
          "internalType": "uint256",
          "name": "_sourceChainId",
          "type": "uint256"
        },
        {
          "internalType": "address",
          "name": "",
          "type": "address"
        },
        {
          "internalType": "address",
          "name": "",
          "type": "address"
        },
        {
          "internalType": "uint256",
          "name": "",
          "type": "uint256"
        },
        {
          "internalType": "bytes",
          "name": "_data",
          "type": "bytes"
        }
      ],
      "name": "messageProcess",
      "outputs": [],
      "stateMutability": "nonpayable",
      "type": "function"
    },
    {
      "inputs": [],
      "name": "owner",
      "outputs": [
        {
          "internalType": "address",
          "name": "",
          "type": "address"
        }
      ],
      "stateMutability": "view",
      "type": "function"
    },
    {
      "inputs": [],
      "name": "renounceOwnership",
      "outputs": [],
      "stateMutability": "nonpayable",
      "type": "function"
    },
    {
      "inputs": [
        {
          "internalType": "address",
          "name": "_signer",
          "type": "address"
        }
      ],
      "name": "setExsig",
      "outputs": [],
      "stateMutability": "nonpayable",
      "type": "function"
    },
    {
      "inputs": [
        {
          "internalType": "uint256",
          "name": "_maxFee",
          "type": "uint256"
        }
      ],
      "name": "setMaxfee",
      "outputs": [],
      "stateMutability": "nonpayable",
      "type": "function"
    },
    {
      "inputs": [
        {
          "internalType": "uint256",
          "name": "_maxGas",
          "type": "uint256"
        }
      ],
      "name": "setMaxgas",
      "outputs": [],
      "stateMutability": "nonpayable",
      "type": "function"
    },
    {
      "inputs": [
        {
          "internalType": "address",
          "name": "newOwner",
          "type": "address"
        }
      ],
      "name": "transferOwnership",
      "outputs": [],
      "stateMutability": "nonpayable",
      "type": "function"
    }
  ],
  "transactionHash": "0x6aabba8d6b7e79752c98aebca9d212eac8907f38b18cbfb20cd00ffeded47a61",
  "args": [
    [
      421614,
      43113,
      84532,
      97,
      44787,
      338,
      4002,
      1452,
      10200,
      1666700000,
      599,
      65,
      11155420,
      80001,
      1442,
      943,
      534351,
      195
    ]
  ],
  "numDeployments": 1,
  "solcInputHash": "c4499a544034e358a323c93fe10ba517",
  "bytecode": "0x60806040523480156200001157600080fd5b506040516200180638038062001806833981016040819052620000349162000129565b6200003f336200005c565b805162000054906004906020840190620000ac565b5050620001f2565b600080546001600160a01b038381166001600160a01b0319831681178455604051919092169283917f8be0079c531659141344cd1fd0a4f28419497f9722a3daafe3b4186f6b6457e09190a35050565b828054828255906000526020600020908101928215620000ea579160200282015b82811115620000ea578251825591602001919060010190620000cd565b50620000f8929150620000fc565b5090565b5b80821115620000f85760008155600101620000fd565b634e487b7160e01b600052604160045260246000fd5b600060208083850312156200013d57600080fd5b82516001600160401b03808211156200015557600080fd5b818501915085601f8301126200016a57600080fd5b8151818111156200017f576200017f62000113565b8060051b604051601f19603f83011681018181108582111715620001a757620001a762000113565b604052918252848201925083810185019188831115620001c657600080fd5b938501935b82851015620001e657845184529385019392850192620001cb565b98975050505050505050565b61160480620002026000396000f3fe608060405234801561001057600080fd5b50600436106100cf5760003560e01c806392ae12fd1161008c578063e47ad74d11610066578063e47ad74d146101eb578063ee9a31a2146101fe578063f2fde38b14610211578063f89d95a01461022457600080fd5b806392ae12fd1461014d578063b479a961146101c5578063c60853f6146101d857600080fd5b80630f59f83a146100d45780635f46e740146100de578063715018a6146100f157806373717b08146100f95780637befab32146101295780638da5cb5b1461013c575b600080fd5b6100dc610245565b005b6100dc6100ec366004611147565b6102f2565b6100dc610443565b60025461010c906001600160a01b031681565b6040516001600160a01b0390911681526020015b60405180910390f35b6100dc610137366004611248565b610457565b6000546001600160a01b031661010c565b61019261015b366004611321565b6003602052600090815260409020805460018201546002909201549091906001600160a01b03811690600160a01b900461ffff1684565b604051610120949392919093845260208401929092526001600160a01b0316604083015261ffff16606082015260800190565b6100dc6101d3366004611321565b610dcc565b6100dc6101e636600461133a565b610e36565b6100dc6101f9366004611321565b610e70565b60015461010c906001600160a01b031681565b6100dc61021f36600461133a565b610ea9565b610237610232366004611321565b610f22565b604051908152602001610120565b61024d610f43565b604080514660208201526000918101829052606080820152600c60808201526b48656c6c6f20576f726c642160a01b60a082015260c00160405160208183030381529060405290506102c560046102a2610f9d565b815481106102b2576102b261135e565b9060005260206000200154600083611015565b506040517f64dac408bbc3afe7f7c9b940c18717de279915af1e42ad16e1aa03bfc069074f90600090a150565b60008681526003602052604090206002015486906001600160a01b03166103605760405162461bcd60e51b815260206004820152601c60248201527f64657374696e6174696f6e20636861696e206e6f74206163746976650000000060448201526064015b60405180910390fd5b600080806103708587018761138a565b9250925092504683036103bb5760408051848152602081018490527f12a1c1987aa73679916aba446c3dc908aba127ae71d422c51cece3350d680f08910160405180910390a1610436565b6000836103c9846001611464565b836040516020016103dc939291906114c3565b60405160208183030381529060405290506103fa60046102a2610f9d565b5060408051858152602081018590527f5ae98332e86ef6d407bdfcac01a24ce2d1b0e308ca5a2a398b93fa440042dd4e910160405180910390a1505b5050505050505050505050565b61044b610f43565b61045560006110e2565b565b61045f610f43565b6001600160a01b03891661091c574660010361047e57600098506108ce565b4661a86a0361049057600098506108ce565b46612105036104a257600098506108ce565b466038036104b357600098506108ce565b4661a4ec036104c557600098506108ce565b466019036104d657600098506108ce565b4660fa036104e757600098506108ce565b466106f1036104f957600098506108ce565b466363564c400361050d57600098506108ce565b466104400361051f57600098506108ce565b4661a5160361053157600098506108ce565b4660890361054257600098506108ce565b466101710361055457600098506108ce565b4662066eee0361057a5773207cbca48258591cd1e953739c663184a02bb32098506108ce565b46634e454153036105a157733b5b764229b2ede0162220af51ab6bf7f8527a4f98506108ce565b4661a869036105c6577324beff24327c8e956d5fc74a5c502038683cdc0a98506108ce565b4662014a34036105ec577318716f6e46a66919deacd3c6fd4fa6da02fa30b298506108ce565b466061036106105773535cced6c471ee907eeb3bbecf1c8223208ca5e098506108ce565b46611e150361063557733b5b764229b2ede0162220af51ab6bf7f8527a4f98506108ce565b4661aef30361065a57736e658066340c7cae09db68f5339ddc4b806d359898506108ce565b466101520361067f57738eb10fc1793094113e7f52ba159a6aeb54cab92c98506108ce565b46610fa2036106a457737d474aa4dbdbc276b67abcc5f54262978b369cec98506108ce565b466105ac036106c957736c83dc6c5128ff3e073e737523d2176aaeb0852598506108ce565b466127d8036106ee5773146449fb27e4a4b4721a9c5742f3bab1e34eb31f98506108ce565b46636357d2e0036107155773e0a5cbb1f15a84c4a4a0f7e98f9721997182ded698506108ce565b466108ad0361073a57733b5b764229b2ede0162220af51ab6bf7f8527a4f98506108ce565b4661e7040361075f57733b5b764229b2ede0162220af51ab6bf7f8527a4f98506108ce565b466102570361078457734f313cb864bd7138fdb35337182d5b0e78d9fb3398506108ce565b4661a515036107a95773566b40dd59a868c244e1353368e08ddad1c1d74f98506108ce565b46615aff036107ce5773566b40dd59a868c244e1353368e08ddad1c1d74f98506108ce565b466041036107f25773f1fbb3e9977dacf3909ab541792cb2bba10ffd5e98506108ce565b4662aa37dc036108185773b4245bfea4afe63c7f7863d090166890e9fef1b298506108ce565b46620138810361083e577308a2d304547a4b93b254d906502a3fc778d7841298506108ce565b466105a2036108635773ca877c797d599be2bf8c897a3b9eba6ba411333298506108ce565b466103af0361088857734f313cb864bd7138fdb35337182d5b0e78d9fb3398506108ce565b466208274f036108ae577323e2ce1ff48cf21239f8c5eb783ce89df02b6f3598506108ce565b4660c3036108ce57734f313cb864bd7138fdb35337182d5b0e78d9fb3398505b6001600160a01b03891661091c5760405162461bcd60e51b81526020600482015260156024820152741a5b9d985b1a590818da185a5b881a5b881b1a5cdd605a1b6044820152606401610357565b600180546001600160a01b0319166001600160a01b038b169081179091556040805163647846a560e01b8152905163647846a5916004808201926020929091908290030181865afa158015610975573d6000803e3d6000fd5b505050506040513d601f19601f8201168201806040525081019061099991906114e2565b600280546001600160a01b0319166001600160a01b03929092169190911790558660005b81811015610bc8576001546001600160a01b03166327c7484e8b8b848181106109e8576109e861135e565b905060200201356040518263ffffffff1660e01b8152600401610a0d91815260200190565b6020604051808303816000875af1158015610a2c573d6000803e3d6000fd5b505050506040513d601f19601f82011682018060405250810190610a5091906114ff565b600360008c8c85818110610a6657610a6661135e565b90506020020135815260200190815260200160002060000181905550838382818110610a9457610a9461135e565b9050602002016020810190610aa99190611518565b600360008c8c85818110610abf57610abf61135e565b90506020020135815260200190815260200160002060020160146101000a81548161ffff021916908361ffff160217905550858582818110610b0357610b0361135e565b9050602002016020810190610b18919061133a565b600360008c8c85818110610b2e57610b2e61135e565b90506020020135815260200190815260200160002060020160006101000a8154816001600160a01b0302191690836001600160a01b03160217905550878782818110610b7c57610b7c61135e565b90506020020135600360008c8c85818110610b9957610b9961135e565b905060200201358152602001908152602001600020600101819055508080610bc09061153c565b9150506109bd565b506002546001600160a01b031615610c565760025460015460405163095ea7b360e01b81526001600160a01b039182166004820152600019602482015291169063095ea7b3906044016020604051808303816000875af1158015610c30573d6000803e3d6000fd5b505050506040513d601f19601f82011682018060405250810190610c549190611555565b505b60015460408051633fc8cef360e01b815290516000926001600160a01b031691633fc8cef39160048083019260209291908290030181865afa158015610ca0573d6000803e3d6000fd5b505050506040513d601f19601f82011682018060405250810190610cc491906114e2565b6001600160a01b031614610dc057600160009054906101000a90046001600160a01b03166001600160a01b0316633fc8cef36040518163ffffffff1660e01b8152600401602060405180830381865afa158015610d25573d6000803e3d6000fd5b505050506040513d601f19601f82011682018060405250810190610d4991906114e2565b60015460405163095ea7b360e01b81526001600160a01b039182166004820152600019602482015291169063095ea7b3906044016020604051808303816000875af1158015610d9c573d6000803e3d6000fd5b505050506040513d601f19601f820116820180604052508101906104369190611555565b50505050505050505050565b610dd4610f43565b60015460405163b479a96160e01b8152600481018390526001600160a01b039091169063b479a961906024015b600060405180830381600087803b158015610e1b57600080fd5b505af1158015610e2f573d6000803e3d6000fd5b5050505050565b610e3e610f43565b60015460405163630429fb60e11b81526001600160a01b0383811660048301529091169063c60853f690602401610e01565b610e78610f43565b60015460405163e47ad74d60e01b8152600481018390526001600160a01b039091169063e47ad74d90602401610e01565b610eb1610f43565b6001600160a01b038116610f165760405162461bcd60e51b815260206004820152602660248201527f4f776e61626c653a206e6577206f776e657220697320746865207a65726f206160448201526564647265737360d01b6064820152608401610357565b610f1f816110e2565b50565b60048181548110610f3257600080fd5b600091825260209091200154905081565b6000546001600160a01b031633146104555760405162461bcd60e51b815260206004820181905260248201527f4f776e61626c653a2063616c6c6572206973206e6f7420746865206f776e65726044820152606401610357565b6000805b600454811015610fe9574660048281548110610fbf57610fbf61135e565b906000526020600020015403610fd757809150610fe9565b80610fe18161153c565b915050610fa1565b50610ff5816001611464565b60045490915061100790600190611577565b811115611012575060005b90565b6000838152600360209081526040808320815160808101835281548152600180830154948201949094526002909101546001600160a01b03808216838501819052600160a01b90920461ffff166060840181905294549351633f6b724360e21b8152929493169263fdadc90c9261109692918a91899190899060040161158a565b6020604051808303816000875af11580156110b5573d6000803e3d6000fd5b505050506040513d601f19601f820116820180604052508101906110d991906114ff565b95945050505050565b600080546001600160a01b038381166001600160a01b0319831681178455604051919092169283917f8be0079c531659141344cd1fd0a4f28419497f9722a3daafe3b4186f6b6457e09190a35050565b6001600160a01b0381168114610f1f57600080fd5b600080600080600080600060c0888a03121561116257600080fd5b8735965060208801359550604088013561117b81611132565b9450606088013561118b81611132565b93506080880135925060a088013567ffffffffffffffff808211156111af57600080fd5b818a0191508a601f8301126111c357600080fd5b8135818111156111d257600080fd5b8b60208285010111156111e457600080fd5b60208301945080935050505092959891949750929550565b60008083601f84011261120e57600080fd5b50813567ffffffffffffffff81111561122657600080fd5b6020830191508360208260051b850101111561124157600080fd5b9250929050565b600080600080600080600080600060a08a8c03121561126657600080fd5b893561127181611132565b985060208a013567ffffffffffffffff8082111561128e57600080fd5b61129a8d838e016111fc565b909a50985060408c01359150808211156112b357600080fd5b6112bf8d838e016111fc565b909850965060608c01359150808211156112d857600080fd5b6112e48d838e016111fc565b909650945060808c01359150808211156112fd57600080fd5b5061130a8c828d016111fc565b915080935050809150509295985092959850929598565b60006020828403121561133357600080fd5b5035919050565b60006020828403121561134c57600080fd5b813561135781611132565b9392505050565b634e487b7160e01b600052603260045260246000fd5b634e487b7160e01b600052604160045260246000fd5b60008060006060848603121561139f57600080fd5b8335925060208401359150604084013567ffffffffffffffff808211156113c557600080fd5b818601915086601f8301126113d957600080fd5b8135818111156113eb576113eb611374565b604051601f8201601f19908116603f0116810190838211818310171561141357611413611374565b8160405282815289602084870101111561142c57600080fd5b8260208601602083013760006020848301015280955050505050509250925092565b634e487b7160e01b600052601160045260246000fd5b808201808211156114775761147761144e565b92915050565b6000815180845260005b818110156114a357602081850181015186830182015201611487565b506000602082860101526020601f19601f83011685010191505092915050565b8381528260208201526060604082015260006110d9606083018461147d565b6000602082840312156114f457600080fd5b815161135781611132565b60006020828403121561151157600080fd5b5051919050565b60006020828403121561152a57600080fd5b813561ffff8116811461135757600080fd5b60006001820161154e5761154e61144e565b5060010190565b60006020828403121561156757600080fd5b8151801515811461135757600080fd5b818103818111156114775761147761144e565b60018060a01b038616815284602082015260a0604082015260006115b160a083018661147d565b61ffff94909416606083015250901515608090910152939250505056fea2646970667358221220a986484854054fcb8218b5bb062bbf49bf1dcc84e5ddcdb20330467958b9565264736f6c63430008110033",
  "devdoc": {
    "kind": "dev",
    "methods": {
      "owner()": {
        "details": "Returns the address of the current owner."
      },
      "renounceOwnership()": {
        "details": "Leaves the contract without owner. It will not be possible to call `onlyOwner` functions. Can only be called by the current owner. NOTE: Renouncing ownership will leave the contract without an owner, thereby disabling any functionality that is only available to the owner."
      },
      "transferOwnership(address)": {
        "details": "Transfers ownership of the contract to a new account (`newOwner`). Can only be called by the current owner."
      }
    },
    "version": 1
  },
  "userdoc": {
    "kind": "user",
    "methods": {
      "configureBridge(address,uint256[],uint256[],address[],uint16[])": {
        "notice": "OWNER "
      },
      "go()": {
        "notice": "Kicks off the initial message, which will then be sent from chain to chain until it ends up back at the original chain that sent the message. "
      },
      "messageProcess(uint256,uint256,address,address,uint256,bytes)": {
        "notice": "Called by the bridge, this is where we handle the received message from the source chain. "
      }
    },
    "version": 1
  },
  "storageLayout": {
    "storage": [
      {
        "astId": 7,
        "contract": "contracts/ATWTest.sol:ATWTest",
        "label": "_owner",
        "offset": 0,
        "slot": "0",
        "type": "t_address"
      },
      {
        "astId": 544,
        "contract": "contracts/ATWTest.sol:ATWTest",
        "label": "BRIDGE",
        "offset": 0,
        "slot": "1",
        "type": "t_contract(IMessageV3)533"
      },
      {
        "astId": 547,
        "contract": "contracts/ATWTest.sol:ATWTest",
        "label": "FEE_TOKEN",
        "offset": 0,
        "slot": "2",
        "type": "t_contract(IERC20)190"
      },
      {
        "astId": 561,
        "contract": "contracts/ATWTest.sol:ATWTest",
        "label": "CHAINS",
        "offset": 0,
        "slot": "3",
        "type": "t_mapping(t_uint256,t_struct(ChainData)556_storage)"
      },
      {
        "astId": 220,
        "contract": "contracts/ATWTest.sol:ATWTest",
        "label": "chainlist",
        "offset": 0,
        "slot": "4",
        "type": "t_array(t_uint256)dyn_storage"
      }
    ],
    "types": {
      "t_address": {
        "encoding": "inplace",
        "label": "address",
        "numberOfBytes": "20"
      },
      "t_array(t_uint256)dyn_storage": {
        "base": "t_uint256",
        "encoding": "dynamic_array",
        "label": "uint256[]",
        "numberOfBytes": "32"
      },
      "t_contract(IERC20)190": {
        "encoding": "inplace",
        "label": "contract IERC20",
        "numberOfBytes": "20"
      },
      "t_contract(IMessageV3)533": {
        "encoding": "inplace",
        "label": "contract IMessageV3",
        "numberOfBytes": "20"
      },
      "t_mapping(t_uint256,t_struct(ChainData)556_storage)": {
        "encoding": "mapping",
        "key": "t_uint256",
        "label": "mapping(uint256 => struct MessageV3Client.ChainData)",
        "numberOfBytes": "32",
        "value": "t_struct(ChainData)556_storage"
      },
      "t_struct(ChainData)556_storage": {
        "encoding": "inplace",
        "label": "struct MessageV3Client.ChainData",
        "members": [
          {
            "astId": 549,
            "contract": "contracts/ATWTest.sol:ATWTest",
            "label": "fee",
            "offset": 0,
            "slot": "0",
            "type": "t_uint256"
          },
          {
            "astId": 551,
            "contract": "contracts/ATWTest.sol:ATWTest",
            "label": "price",
            "offset": 0,
            "slot": "1",
            "type": "t_uint256"
          },
          {
            "astId": 553,
            "contract": "contracts/ATWTest.sol:ATWTest",
            "label": "endpoint",
            "offset": 0,
            "slot": "2",
            "type": "t_address"
          },
          {
            "astId": 555,
            "contract": "contracts/ATWTest.sol:ATWTest",
            "label": "confirmations",
            "offset": 20,
            "slot": "2",
            "type": "t_uint16"
          }
        ],
        "numberOfBytes": "96"
      },
      "t_uint16": {
        "encoding": "inplace",
        "label": "uint16",
        "numberOfBytes": "2"
      },
      "t_uint256": {
        "encoding": "inplace",
        "label": "uint256",
        "numberOfBytes": "32"
      }
    }
  }
}