{
  "address": "0x6c83DC6C5128ff3E073E737523D2176aAeB08525",
  "abi": [
    {
      "inputs": [
        {
          "internalType": "uint256[]",
          "name": "_chainlist",
          "type": "uint256[]"
        }
      ],
      "stateMutability": "nonpayable",
      "type": "constructor"
    },
    {
      "anonymous": false,
      "inputs": [
        {
          "indexed": false,
          "internalType": "uint256",
          "name": "_startChainId",
          "type": "uint256"
        },
        {
          "indexed": false,
          "internalType": "uint256",
          "name": "hop",
          "type": "uint256"
        }
      ],
      "name": "Completed",
      "type": "event"
    },
    {
      "anonymous": false,
      "inputs": [],
      "name": "Go",
      "type": "event"
    },
    {
      "anonymous": false,
      "inputs": [
        {
          "indexed": false,
          "internalType": "uint256",
          "name": "startChainId",
          "type": "uint256"
        },
        {
          "indexed": false,
          "internalType": "uint256",
          "name": "hop",
          "type": "uint256"
        }
      ],
      "name": "NextHop",
      "type": "event"
    },
    {
      "anonymous": false,
      "inputs": [
        {
          "indexed": true,
          "internalType": "address",
          "name": "previousOwner",
          "type": "address"
        },
        {
          "indexed": true,
          "internalType": "address",
          "name": "newOwner",
          "type": "address"
        }
      ],
      "name": "OwnershipTransferred",
      "type": "event"
    },
    {
      "inputs": [],
      "name": "BRIDGE",
      "outputs": [
        {
          "internalType": "contract IMessageV3",
          "name": "",
          "type": "address"
        }
      ],
      "stateMutability": "view",
      "type": "function"
    },
    {
      "inputs": [
        {
          "internalType": "uint256",
          "name": "",
          "type": "uint256"
        }
      ],
      "name": "CHAINS",
      "outputs": [
        {
          "internalType": "uint256",
          "name": "fee",
          "type": "uint256"
        },
        {
          "internalType": "uint256",
          "name": "price",
          "type": "uint256"
        },
        {
          "internalType": "address",
          "name": "endpoint",
          "type": "address"
        },
        {
          "internalType": "uint16",
          "name": "confirmations",
          "type": "uint16"
        }
      ],
      "stateMutability": "view",
      "type": "function"
    },
    {
      "inputs": [],
      "name": "FEE_TOKEN",
      "outputs": [
        {
          "internalType": "contract IERC20",
          "name": "",
          "type": "address"
        }
      ],
      "stateMutability": "view",
      "type": "function"
    },
    {
      "inputs": [
        {
          "internalType": "uint256",
          "name": "",
          "type": "uint256"
        }
      ],
      "name": "chainlist",
      "outputs": [
        {
          "internalType": "uint256",
          "name": "",
          "type": "uint256"
        }
      ],
      "stateMutability": "view",
      "type": "function"
    },
    {
      "inputs": [
        {
          "internalType": "address",
          "name": "_bridge",
          "type": "address"
        },
        {
          "internalType": "uint256[]",
          "name": "_chains",
          "type": "uint256[]"
        },
        {
          "internalType": "uint256[]",
          "name": "_prices",
          "type": "uint256[]"
        },
        {
          "internalType": "address[]",
          "name": "_endpoints",
          "type": "address[]"
        },
        {
          "internalType": "uint16[]",
          "name": "_confirmations",
          "type": "uint16[]"
        }
      ],
      "name": "configureBridge",
      "outputs": [],
      "stateMutability": "nonpayable",
      "type": "function"
    },
    {
      "inputs": [],
      "name": "go",
      "outputs": [],
      "stateMutability": "nonpayable",
      "type": "function"
    },
    {
      "inputs": [
        {
          "internalType": "uint256",
          "name": "",
          "type": "uint256"
        },
        {
          "internalType": "uint256",
          "name": "_sourceChainId",
          "type": "uint256"
        },
        {
          "internalType": "address",
          "name": "",
          "type": "address"
        },
        {
          "internalType": "address",
          "name": "",
          "type": "address"
        },
        {
          "internalType": "uint256",
          "name": "",
          "type": "uint256"
        },
        {
          "internalType": "bytes",
          "name": "_data",
          "type": "bytes"
        }
      ],
      "name": "messageProcess",
      "outputs": [],
      "stateMutability": "nonpayable",
      "type": "function"
    },
    {
      "inputs": [],
      "name": "owner",
      "outputs": [
        {
          "internalType": "address",
          "name": "",
          "type": "address"
        }
      ],
      "stateMutability": "view",
      "type": "function"
    },
    {
      "inputs": [],
      "name": "renounceOwnership",
      "outputs": [],
      "stateMutability": "nonpayable",
      "type": "function"
    },
    {
      "inputs": [
        {
          "internalType": "address",
          "name": "_signer",
          "type": "address"
        }
      ],
      "name": "setExsig",
      "outputs": [],
      "stateMutability": "nonpayable",
      "type": "function"
    },
    {
      "inputs": [
        {
          "internalType": "uint256",
          "name": "_maxFee",
          "type": "uint256"
        }
      ],
      "name": "setMaxfee",
      "outputs": [],
      "stateMutability": "nonpayable",
      "type": "function"
    },
    {
      "inputs": [
        {
          "internalType": "uint256",
          "name": "_maxGas",
          "type": "uint256"
        }
      ],
      "name": "setMaxgas",
      "outputs": [],
      "stateMutability": "nonpayable",
      "type": "function"
    },
    {
      "inputs": [
        {
          "internalType": "address",
          "name": "newOwner",
          "type": "address"
        }
      ],
      "name": "transferOwnership",
      "outputs": [],
      "stateMutability": "nonpayable",
      "type": "function"
    }
  ],
  "transactionHash": "0x024b73293559db013c4f8d31c00ddfb5f3af9e03fbf37ddcf8da2a5972032a04",
  "args": [
    [
      421614,
      43113,
      84532,
      97,
      44787,
      338,
      4002,
      1452,
      10200,
      1666700000,
      599,
      65,
      11155420,
      80001,
      1442,
      943,
      534351,
      195
    ]
  ],
  "numDeployments": 1,
  "solcInputHash": "35005d207434ffc8ddacd46197ddbf4d",
  "bytecode": "0x60806040523480156200001157600080fd5b506040516200173638038062001736833981016040819052620000349162000129565b6200003f336200005c565b805162000054906004906020840190620000ac565b5050620001f2565b600080546001600160a01b038381166001600160a01b0319831681178455604051919092169283917f8be0079c531659141344cd1fd0a4f28419497f9722a3daafe3b4186f6b6457e09190a35050565b828054828255906000526020600020908101928215620000ea579160200282015b82811115620000ea578251825591602001919060010190620000cd565b50620000f8929150620000fc565b5090565b5b80821115620000f85760008155600101620000fd565b634e487b7160e01b600052604160045260246000fd5b600060208083850312156200013d57600080fd5b82516001600160401b03808211156200015557600080fd5b818501915085601f8301126200016a57600080fd5b8151818111156200017f576200017f62000113565b8060051b604051601f19603f83011681018181108582111715620001a757620001a762000113565b604052918252848201925083810185019188831115620001c657600080fd5b938501935b82851015620001e657845184529385019392850192620001cb565b98975050505050505050565b61153480620002026000396000f3fe608060405234801561001057600080fd5b50600436106100cf5760003560e01c806392ae12fd1161008c578063e47ad74d11610066578063e47ad74d146101eb578063ee9a31a2146101fe578063f2fde38b14610211578063f89d95a01461022457600080fd5b806392ae12fd1461014d578063b479a961146101c5578063c60853f6146101d857600080fd5b80630f59f83a146100d45780635f46e740146100de578063715018a6146100f157806373717b08146100f95780637befab32146101295780638da5cb5b1461013c575b600080fd5b6100dc610245565b005b6100dc6100ec366004611077565b610352565b6100dc6104cb565b60025461010c906001600160a01b031681565b6040516001600160a01b0390911681526020015b60405180910390f35b6100dc610137366004611178565b6104df565b6000546001600160a01b031661010c565b61019261015b366004611251565b6003602052600090815260409020805460018201546002909201549091906001600160a01b03811690600160a01b900461ffff1684565b604051610120949392919093845260208401929092526001600160a01b0316604083015261ffff16606082015260800190565b6100dc6101d3366004611251565b610d74565b6100dc6101e636600461126a565b610dde565b6100dc6101f9366004611251565b610e18565b60015461010c906001600160a01b031681565b6100dc61021f36600461126a565b610e51565b610237610232366004611251565b610eca565b604051908152602001610120565b61024d610eeb565b6000805b60045481101561029957466004828154811061026f5761026f61128e565b90600052602060002001540361028757809150610299565b80610291816112ba565b915050610251565b5060408051808201909152600c81526b48656c6c6f20576f726c642160a01b60208201526000466102cb8460016112d3565b836040516020016102de93929190611332565b60408051601f19818403018152919052905061032360046103008560016112d3565b815481106103105761031061128e565b9060005260206000200154600083610f45565b506040517f64dac408bbc3afe7f7c9b940c18717de279915af1e42ad16e1aa03bfc069074f90600090a1505050565b60008681526003602052604090206002015486906001600160a01b03166103c05760405162461bcd60e51b815260206004820152601c60248201527f64657374696e6174696f6e20636861696e206e6f74206163746976650000000060448201526064015b60405180910390fd5b600080806103d085870187611367565b92509250925046830361041b5760408051848152602081018490527f12a1c1987aa73679916aba446c3dc908aba127ae71d422c51cece3350d680f08910160405180910390a16104be565b6104268260016112d3565b6004549092506104389060019061142b565b82111561044457600091505b600083838360405160200161045b93929190611332565b6040516020818303038152906040529050610482600484815481106103105761031061128e565b5060408051858152602081018590527f5ae98332e86ef6d407bdfcac01a24ce2d1b0e308ca5a2a398b93fa440042dd4e910160405180910390a1505b5050505050505050505050565b6104d3610eeb565b6104dd6000611012565b565b6104e7610eeb565b6001600160a01b0389166108c457466001036105065760009850610876565b4661a86a036105185760009850610876565b466121050361052a5760009850610876565b4660380361053b5760009850610876565b4661a4ec0361054d5760009850610876565b4660190361055e5760009850610876565b4660fa0361056f5760009850610876565b466106f1036105815760009850610876565b466363564c40036105955760009850610876565b46610440036105a75760009850610876565b4661a516036105b95760009850610876565b466089036105ca5760009850610876565b46610171036105dc5760009850610876565b4662066eee0361060257730c78346555e9e04028c7c7b267dfc7d32f6b24d49850610876565b4661a8690361062757738b7aa007ea9bf2bf507a4ee9ff10093898eb3fc09850610876565b4662014a340361064d57738507a0bb83e5663e5bb4cacff66f6e3c558c07269850610876565b466061036106715773ca877c797d599be2bf8c897a3b9eba6ba41133329850610876565b4661aef3036106965773bd49b9156d288367a5364f9857a4e951374a0e879850610876565b46610152036106bb5773bcac93907bd9436f956273ae8ed431f092bd55909850610876565b46610fa2036106e05773d07129f94934757a1653de9cb076910de39fba6f9850610876565b466105ac036107055773aeb094cb391cff1978fd157d34fe146ba117b4ac9850610876565b466127d80361072a5773f1fbb3e9977dacf3909ab541792cb2bba10ffd5e9850610876565b46636357d2e00361075157739ef05c01d9a393eec6c26fcc2b726025ab14ef319850610876565b4661025703610776577346917efcc99e624fe035ac9d02afb61141a53f7b9850610876565b4660410361079a5773c14d902deeff0efa668dc0405a97685bbad79db39850610876565b4662aa37dc036107c0577318716f6e46a66919deacd3c6fd4fa6da02fa30b29850610876565b4662013881036107e657733ca2e8ecbe81c1a86e13415b0e7634a9a47270d69850610876565b466105a20361080b5773bcac93907bd9436f956273ae8ed431f092bd55909850610876565b466103af03610830577354c82b81bbb4252543ee5055074aba65d123dfa89850610876565b466208274f036108565773b09780607f0cbcc3c7b95f17d42417269ed53a1d9850610876565b4660c303610876577346917efcc99e624fe035ac9d02afb61141a53f7b98505b6001600160a01b0389166108c45760405162461bcd60e51b81526020600482015260156024820152741a5b9d985b1a590818da185a5b881a5b881b1a5cdd605a1b60448201526064016103b7565b600180546001600160a01b0319166001600160a01b038b169081179091556040805163647846a560e01b8152905163647846a5916004808201926020929091908290030181865afa15801561091d573d6000803e3d6000fd5b505050506040513d601f19601f82011682018060405250810190610941919061143e565b600280546001600160a01b0319166001600160a01b03929092169190911790558660005b81811015610b70576001546001600160a01b03166327c7484e8b8b848181106109905761099061128e565b905060200201356040518263ffffffff1660e01b81526004016109b591815260200190565b6020604051808303816000875af11580156109d4573d6000803e3d6000fd5b505050506040513d601f19601f820116820180604052508101906109f8919061145b565b600360008c8c85818110610a0e57610a0e61128e565b90506020020135815260200190815260200160002060000181905550838382818110610a3c57610a3c61128e565b9050602002016020810190610a519190611474565b600360008c8c85818110610a6757610a6761128e565b90506020020135815260200190815260200160002060020160146101000a81548161ffff021916908361ffff160217905550858582818110610aab57610aab61128e565b9050602002016020810190610ac0919061126a565b600360008c8c85818110610ad657610ad661128e565b90506020020135815260200190815260200160002060020160006101000a8154816001600160a01b0302191690836001600160a01b03160217905550878782818110610b2457610b2461128e565b90506020020135600360008c8c85818110610b4157610b4161128e565b905060200201358152602001908152602001600020600101819055508080610b68906112ba565b915050610965565b506002546001600160a01b031615610bfe5760025460015460405163095ea7b360e01b81526001600160a01b039182166004820152600019602482015291169063095ea7b3906044016020604051808303816000875af1158015610bd8573d6000803e3d6000fd5b505050506040513d601f19601f82011682018060405250810190610bfc9190611498565b505b60015460408051633fc8cef360e01b815290516000926001600160a01b031691633fc8cef39160048083019260209291908290030181865afa158015610c48573d6000803e3d6000fd5b505050506040513d601f19601f82011682018060405250810190610c6c919061143e565b6001600160a01b031614610d6857600160009054906101000a90046001600160a01b03166001600160a01b0316633fc8cef36040518163ffffffff1660e01b8152600401602060405180830381865afa158015610ccd573d6000803e3d6000fd5b505050506040513d601f19601f82011682018060405250810190610cf1919061143e565b60015460405163095ea7b360e01b81526001600160a01b039182166004820152600019602482015291169063095ea7b3906044016020604051808303816000875af1158015610d44573d6000803e3d6000fd5b505050506040513d601f19601f820116820180604052508101906104be9190611498565b50505050505050505050565b610d7c610eeb565b60015460405163b479a96160e01b8152600481018390526001600160a01b039091169063b479a961906024015b600060405180830381600087803b158015610dc357600080fd5b505af1158015610dd7573d6000803e3d6000fd5b5050505050565b610de6610eeb565b60015460405163630429fb60e11b81526001600160a01b0383811660048301529091169063c60853f690602401610da9565b610e20610eeb565b60015460405163e47ad74d60e01b8152600481018390526001600160a01b039091169063e47ad74d90602401610da9565b610e59610eeb565b6001600160a01b038116610ebe5760405162461bcd60e51b815260206004820152602660248201527f4f776e61626c653a206e6577206f776e657220697320746865207a65726f206160448201526564647265737360d01b60648201526084016103b7565b610ec781611012565b50565b60048181548110610eda57600080fd5b600091825260209091200154905081565b6000546001600160a01b031633146104dd5760405162461bcd60e51b815260206004820181905260248201527f4f776e61626c653a2063616c6c6572206973206e6f7420746865206f776e657260448201526064016103b7565b6000838152600360209081526040808320815160808101835281548152600180830154948201949094526002909101546001600160a01b03808216838501819052600160a01b90920461ffff166060840181905294549351633f6b724360e21b8152929493169263fdadc90c92610fc692918a9189919089906004016114ba565b6020604051808303816000875af1158015610fe5573d6000803e3d6000fd5b505050506040513d601f19601f82011682018060405250810190611009919061145b565b95945050505050565b600080546001600160a01b038381166001600160a01b0319831681178455604051919092169283917f8be0079c531659141344cd1fd0a4f28419497f9722a3daafe3b4186f6b6457e09190a35050565b6001600160a01b0381168114610ec757600080fd5b600080600080600080600060c0888a03121561109257600080fd5b873596506020880135955060408801356110ab81611062565b945060608801356110bb81611062565b93506080880135925060a088013567ffffffffffffffff808211156110df57600080fd5b818a0191508a601f8301126110f357600080fd5b81358181111561110257600080fd5b8b602082850101111561111457600080fd5b60208301945080935050505092959891949750929550565b60008083601f84011261113e57600080fd5b50813567ffffffffffffffff81111561115657600080fd5b6020830191508360208260051b850101111561117157600080fd5b9250929050565b600080600080600080600080600060a08a8c03121561119657600080fd5b89356111a181611062565b985060208a013567ffffffffffffffff808211156111be57600080fd5b6111ca8d838e0161112c565b909a50985060408c01359150808211156111e357600080fd5b6111ef8d838e0161112c565b909850965060608c013591508082111561120857600080fd5b6112148d838e0161112c565b909650945060808c013591508082111561122d57600080fd5b5061123a8c828d0161112c565b915080935050809150509295985092959850929598565b60006020828403121561126357600080fd5b5035919050565b60006020828403121561127c57600080fd5b813561128781611062565b9392505050565b634e487b7160e01b600052603260045260246000fd5b634e487b7160e01b600052601160045260246000fd5b6000600182016112cc576112cc6112a4565b5060010190565b808201808211156112e6576112e66112a4565b92915050565b6000815180845260005b81811015611312576020818501810151868301820152016112f6565b506000602082860101526020601f19601f83011685010191505092915050565b83815282602082015260606040820152600061100960608301846112ec565b634e487b7160e01b600052604160045260246000fd5b60008060006060848603121561137c57600080fd5b8335925060208401359150604084013567ffffffffffffffff808211156113a257600080fd5b818601915086601f8301126113b657600080fd5b8135818111156113c8576113c8611351565b604051601f8201601f19908116603f011681019083821181831017156113f0576113f0611351565b8160405282815289602084870101111561140957600080fd5b8260208601602083013760006020848301015280955050505050509250925092565b818103818111156112e6576112e66112a4565b60006020828403121561145057600080fd5b815161128781611062565b60006020828403121561146d57600080fd5b5051919050565b60006020828403121561148657600080fd5b813561ffff8116811461128757600080fd5b6000602082840312156114aa57600080fd5b8151801515811461128757600080fd5b60018060a01b038616815284602082015260a0604082015260006114e160a08301866112ec565b61ffff94909416606083015250901515608090910152939250505056fea26469706673582212207d00f5d27a97536094f198cf3f2baf6d399da7d45fa43fe8298eae9c193dbdd164736f6c63430008110033",
  "devdoc": {
    "kind": "dev",
    "methods": {
      "owner()": {
        "details": "Returns the address of the current owner."
      },
      "renounceOwnership()": {
        "details": "Leaves the contract without owner. It will not be possible to call `onlyOwner` functions. Can only be called by the current owner. NOTE: Renouncing ownership will leave the contract without an owner, thereby disabling any functionality that is only available to the owner."
      },
      "transferOwnership(address)": {
        "details": "Transfers ownership of the contract to a new account (`newOwner`). Can only be called by the current owner."
      }
    },
    "version": 1
  },
  "userdoc": {
    "kind": "user",
    "methods": {
      "configureBridge(address,uint256[],uint256[],address[],uint16[])": {
        "notice": "OWNER "
      }
    },
    "version": 1
  },
  "storageLayout": {
    "storage": [
      {
        "astId": 7,
        "contract": "contracts/ATWTest.sol:ATWTest",
        "label": "_owner",
        "offset": 0,
        "slot": "0",
        "type": "t_address"
      },
      {
        "astId": 541,
        "contract": "contracts/ATWTest.sol:ATWTest",
        "label": "BRIDGE",
        "offset": 0,
        "slot": "1",
        "type": "t_contract(IMessageV3)530"
      },
      {
        "astId": 544,
        "contract": "contracts/ATWTest.sol:ATWTest",
        "label": "FEE_TOKEN",
        "offset": 0,
        "slot": "2",
        "type": "t_contract(IERC20)190"
      },
      {
        "astId": 558,
        "contract": "contracts/ATWTest.sol:ATWTest",
        "label": "CHAINS",
        "offset": 0,
        "slot": "3",
        "type": "t_mapping(t_uint256,t_struct(ChainData)553_storage)"
      },
      {
        "astId": 220,
        "contract": "contracts/ATWTest.sol:ATWTest",
        "label": "chainlist",
        "offset": 0,
        "slot": "4",
        "type": "t_array(t_uint256)dyn_storage"
      }
    ],
    "types": {
      "t_address": {
        "encoding": "inplace",
        "label": "address",
        "numberOfBytes": "20"
      },
      "t_array(t_uint256)dyn_storage": {
        "base": "t_uint256",
        "encoding": "dynamic_array",
        "label": "uint256[]",
        "numberOfBytes": "32"
      },
      "t_contract(IERC20)190": {
        "encoding": "inplace",
        "label": "contract IERC20",
        "numberOfBytes": "20"
      },
      "t_contract(IMessageV3)530": {
        "encoding": "inplace",
        "label": "contract IMessageV3",
        "numberOfBytes": "20"
      },
      "t_mapping(t_uint256,t_struct(ChainData)553_storage)": {
        "encoding": "mapping",
        "key": "t_uint256",
        "label": "mapping(uint256 => struct MessageV3Client.ChainData)",
        "numberOfBytes": "32",
        "value": "t_struct(ChainData)553_storage"
      },
      "t_struct(ChainData)553_storage": {
        "encoding": "inplace",
        "label": "struct MessageV3Client.ChainData",
        "members": [
          {
            "astId": 546,
            "contract": "contracts/ATWTest.sol:ATWTest",
            "label": "fee",
            "offset": 0,
            "slot": "0",
            "type": "t_uint256"
          },
          {
            "astId": 548,
            "contract": "contracts/ATWTest.sol:ATWTest",
            "label": "price",
            "offset": 0,
            "slot": "1",
            "type": "t_uint256"
          },
          {
            "astId": 550,
            "contract": "contracts/ATWTest.sol:ATWTest",
            "label": "endpoint",
            "offset": 0,
            "slot": "2",
            "type": "t_address"
          },
          {
            "astId": 552,
            "contract": "contracts/ATWTest.sol:ATWTest",
            "label": "confirmations",
            "offset": 20,
            "slot": "2",
            "type": "t_uint16"
          }
        ],
        "numberOfBytes": "96"
      },
      "t_uint16": {
        "encoding": "inplace",
        "label": "uint16",
        "numberOfBytes": "2"
      },
      "t_uint256": {
        "encoding": "inplace",
        "label": "uint256",
        "numberOfBytes": "32"
      }
    }
  }
}